:020000040800F2
:100000000050002045120008D3040008D504000861
:10001000D7040008D9040008DB0400080000000031
:10002000000000000000000000000000DD040008E7
:10003000DF04000800000000E1040008E3040008F9
:100040008D1200088D1200088D1200088D12000814
:100050008D1200088D1200088D1200088D12000804
:100060008D1200088D1200088D1200088D120008F4
:100070008D1200088D1200088D1200088D120008E4
:100080008D1200088D1200088D1200088D120008D4
:100090008D1200088D1200088D1200088D120008C4
:1000A0008D1200088D1200088D1200088D120008B4
:1000B0008D1200088D1200088D1200088D120008A4
:1000C0008D1200088D1200088D1200088D12000894
:1000D0008D1200088D1200088D1200088D12000884
:1000E0008D1200088D1200088D120008000000001B
:1000F0000000000000000000000000000000000000
:0C01000000000000000000005FF808F1A3
:10010C00034613F8012B002AFBD1181A013870474B
:10011C0030B587B0002402940394049405940F4BDB
:10012C009A6942F004029A619B6903F004030193FB
:10013C00019B0B4D22464FF4BF71284600F0C2FEC6
:10014C004FF4BF730293012303930494022305938A
:10015C0002A9284600F0A4FD07B030BD00100240F3
:10016C000008014072B6FEE708B50A480A4B036066
:10017C004FF4E133436000238360C36003610C22BE
:10018C0042618361C36100F0C0FF00B908BDFFF795
:10019C00E9FF00BF0C0000200038014000B591B011
:1001AC002822002106A801F091F800230193029364
:1001BC000393049305930223069301220A921022BF
:1001CC000B920D934FF4E0130F9306A800F05AFA1C
:1001DC0088B90F23019302230293002303934FF456
:1001EC00806204920593012101A800F07DFC20B9E6
:1001FC0011B05DF804FBFFF7B5FFFFF7B3FF00008C
:10020C0008B500F0F1F9FFF7C9FFFFF781FFFFF721
:10021C00ABFF00F0CBF80021084600F035F904489C
:10022C0000F047F900F008F8024800F00FF8FEE77C
:10023C00001300081413000808B500224FF4807155
:10024C00014800F03FFE08BD0008014038B50446E7
:10025C000B4D01224FF48071284600F033FE2046EE
:10026C00FFF74EFF4FF47A7382B22146054800F037
:10027C007CFF00224FF48071284600F023FE38BD2D
:10028C00000801400C00002082B00023019303E021
:10029C0000BF019B0133019300EBC003019AB2EB49
:1002AC00430FF5D302B0704738B504460C4D00F03F
:1002BC0001020821284600F005FEC4F3400210217B
:1002CC00284600F0FFFDC4F380022021284600F0F0
:1002DC00F9FDC4F3C0024021284600F0F3FD38BDFF
:1002EC000008014038B50546164C00220221204674
:1002FC0000F0E8FD2809FFF7D7FF01220421204672
:10030C0000F0E0FD3220FFF7BFFF00220421204661
:10031C0000F0D8FD3220FFF7B7FF05F00F00FFF714
:10032C00C3FF01220421204600F0CCFD3220FFF750
:10033C00ABFF00220421204600F0C4FD022000F097
:10034C0077F938BD0008014038B50546164C012236
:10035C000221204600F0B6FD2809FFF7A5FF012277
:10036C000421204600F0AEFD3220FFF78DFF002265
:10037C000421204600F0A6FD3220FFF785FF05F092
:10038C000F00FFF791FF01220421204600F09AFD97
:10039C003220FFF779FF00220421204600F092FD65
:1003AC006420FFF771FF38BD0008014010B5322002
:1003BC0000F03EF9334C00220221204600F082FD71
:1003CC0000220421204600F07DFD0320FFF76CFF86
:1003DC0001220421204600F075FD3220FFF754FF66
:1003EC0000220421204600F06DFD052000F020F9CC
:1003FC000320FFF759FF01220421204600F062FD83
:10040C003220FFF741FF00220421204600F05AFD64
:10041C00012000F00DF90320FFF746FF0122042113
:10042C00204600F04FFD3220FFF72EFF0022042162
:10043C00204600F047FD012000F0FAF80220FFF7FB
:10044C0033FF01220421204600F03CFD3220FFF74F
:10045C001BFF00220421204600F034FD022000F096
:10046C00E7F82820FFF73EFF0C20FFF73BFF0620A4
:10047C00FFF738FF0120FFF735FF022000F0D8F816
:10048C0010BD00BF0008014008B5032803D8DFE801
:10049C0000F00A040608002006E0C02004E09420C6
:1004AC0002E0D42000E080200844C0B2FFF71AFF1D
:1004BC0008BD10B5044602E00134FFF745FF207873
:1004CC000028F9D110BDFEE7FEE7FEE7FEE7FEE7E8
:1004DC0070477047704708B500F098F808BD0000E9
:1004EC0082B00E4B9A6942F001029A619A6902F04D
:1004FC0001020092009ADA6942F08052DA61DB69FB
:10050C0003F080530193019B054A536823F0E06389
:10051C0043F00073536002B0704700BF00100240FC
:10052C000000014010B586B000230293039304939E
:10053C0005930268174B9A4201D006B010BD03F523
:10054C0058439A6942F480429A619A6902F4804253
:10055C000092009A9A6942F004029A619B6903F036
:10056C0004030193019B4FF4007302930223039342
:10057C0003230593084C02A9204600F091FB4FF48D
:10058C008063029300230393049302A9204600F096
:10059C0087FBD2E7003801400008014010B5044643
:1005AC000E4B18784FF47A73B3FBF0F30C4A1068C7
:1005BC00B0FBF3F000F0D6FC68B90F2C01D9012088
:1005CC000AE0002221464FF0FF3000F093FC054B6F
:1005DC001C60002000E0012010BD00BF00000020C6
:1005EC00080000200400002008B5074A136843F0F7
:1005FC0010031360032000F06BFC0F20FFF7CEFFFD
:10060C00FFF76EFF002008BD00200240034A11686E
:10061C00034B1B780B441360704700BF5400002041
:10062C0000000020014B1868704700BF54000020E8
:10063C0038B50446FFF7F6FF0546B4F1FF3F02D08C
:10064C00044B1B781C44FFF7EDFF401BA042FAD370
:10065C0038BD00BF0000002082B0084B1B68084A60
:10066C00A2FB03235B0A00FB03F3019300BF019B76
:10067C005A1E0192002BF9D102B0704708000020DD
:10068C00D34D6210002800F0F18170B582B00446A1
:10069C00036813F0010F2CD0994B5B6803F00C032B
:1006AC00042B1DD0964B5B6803F00C03082B12D067
:1006BC006368B3F5803F41D0002B55D103F18043E3
:1006CC0003F504331A6822F480321A601A6822F493
:1006DC0080221A6037E08A4B5B6813F4803FE7D0C6
:1006EC00874B1B6813F4003F03D06368002B00F0AA
:1006FC00BF81236813F0020F75D0814B5B6813F038
:10070C000C0F5FD07E4B5B6803F00C03082B54D0AE
:10071C002369002B00F08A807A4B01221A60FFF7C4
:10072C0081FF0546764B1B6813F0020F75D1FFF75E
:10073C0079FF401B0228F5D903209EE1704A13680B
:10074C0043F480331360636843B3FFF76BFF0546D4
:10075C006B4B1B6813F4003FCBD1FFF763FF401BBF
:10076C006428F5D9032088E1B3F5A02F09D0644B98
:10077C001A6822F480321A601A6822F480221A60F5
:10078C00E1E703F18043A3F53C331A6842F480227D
:10079C001A601A6842F480321A60D4E7FFF742FFFD
:1007AC000546574B1B6813F4003FA2D0FFF73AFFE6
:1007BC00401B6428F5D903205FE1514B5B6813F4AF
:1007CC00803FA5D14E4B1B6813F0020F03D0236959
:1007DC00012B40F04F814A4A136823F0F8036169FA
:1007EC0043EAC1031360236813F0080F33D0A369E5
:1007FC00002B5CD0434B0122C3F88024FFF712FF7F
:10080C0005463F4B5B6A13F0020F21D1FFF70AFF3D
:10081C00401B0228F5D903202FE1394A136823F035
:10082C00F803616943EAC1031360DCE7354B00222E
:10083C001A60FFF7F7FE0546314B1B6813F0020FE9
:10084C00D1D0FFF7EFFE401B0228F5D9032014E1AD
:10085C000120FFF701FF236813F0040F00F09680CE
:10086C00274BDB6913F0805F34D1254BDA6942F0FA
:10087C008052DA61DB6903F080530193019B0125FF
:10088C00214B1B6813F4807F26D0E368012B3DD0ED
:10089C00002B53D103F1804303F504331A6A22F081
:1008AC0001021A621A6A22F004021A6233E0154B32
:1008BC000022C3F88024FFF7B5FE0546104B5B6A97
:1008CC0013F0020FC7D0FFF7ADFE401B0228F5D97D
:1008DC000320D2E00025D3E70B4A136843F480735E
:1008EC001360FFF79FFE0646074B1B6813F4807FCF
:1008FC00CBD1FFF797FE801B6428F5D90320BCE011
:10090C000010024000004242007000405F4A136A2F
:10091C0043F001031362E36833B3FFF783FE06462B
:10092C005A4B1B6A13F0020F2FD1FFF77BFE801B73
:10093C0041F288339842F3D903209EE0052B09D06D
:10094C00524B1A6A22F001021A621A6A22F004024D
:10095C001A62E0E74D4B1A6A42F004021A621A6AF4
:10096C0042F001021A62D6E7FFF75CFE0646474BDF
:10097C001B6A13F0020F08D0FFF754FE801B41F2E4
:10098C0088339842F3D9032077E0E5B9E369002B6B
:10099C0072D03E4A526802F00C02082A56D0022B42
:1009AC0017D03B4B00221A66FFF73CFE0446374B30
:1009BC001B6813F0007F47D0FFF734FE001B0228A2
:1009CC00F5D9032059E0314AD36923F08053D36120
:1009DC00DCE72F4B00221A66FFF724FE05462B4B53
:1009EC001B6813F0007F06D0FFF71CFE401B02288B
:1009FC00F5D9032041E0236AB3F5803F1AD023498F
:100A0C004B6823F47413226A606A024313434B60ED
:100A1C001F4B01221A66FFF705FE04461B4B1B6891
:100A2C0013F0007F0ED1FFF7FDFD001B0228F5D956
:100A3C00032022E0154A536823F40033A1680B43CA
:100A4C005360DCE7002018E0002016E0012B16D0E4
:100A5C000E4B5B6803F48031226A914211D103F48E
:100A6C007013626A93420ED1002006E00120704799
:100A7C00012002E0012000E0002002B070BD012046
:100A8C00FBE70120F9E70120F7E700BF0010024067
:100A9C00000042420F4B5B6803F00C02082A01D0A5
:100AAC000D487047C3F383420C49885C13F4803FB4
:100ABC000BD0084B5B68C3F34043094AD35C064A2E
:100ACC0002FB00F0B0FBF3F07047064B03FB00F0A9
:100ADC00704700BF0010024000127A003413000867
:100AEC004413000800093D00002800F0A08070B5F8
:100AFC000D460446524B1B6803F007038B420BD286
:100B0C004F4A136823F007030B431360136803F079
:100B1C0007038B4240F08D80236813F0020F17D02F
:100B2C0013F0040F04D0474A536843F4E063536056
:100B3C00236813F0080F04D0424A536843F46053FF
:100B4C005360404A536823F0F003A1680B43536091
:100B5C00236813F0010F31D06368012B20D0022BD6
:100B6C0025D0384A126812F0020F64D035494A6811
:100B7C0022F0030213434B60FFF754FD0646314B42
:100B8C005B6803F00C036268B3EB820F16D0FFF7BF
:100B9C0049FD801B41F288339842F0D9032045E08F
:100BAC00284A126812F4003FE0D101203EE0254AA9
:100BBC00126812F0007FD9D1012037E0204B1B685E
:100BCC0003F00703AB420AD91D4A136823F007034D
:100BDC002B431360136803F00703AB422DD123683A
:100BEC0013F0040F06D0174A536823F4E063E1684E
:100BFC000B435360236813F0080F07D0114A536856
:100C0C0023F46053216943EAC1035360FFF742FFA9
:100C1C000C4B5B68C3F303130B4AD35CD8400B4BF0
:100C2C0018600B4B1868FFF7B9FC002070BD012051
:100C3C0070470120FAE70120F8E70120F6E700BF32
:100C4C000020024000100240481300080800002059
:100C5C0004000020014B1868704700BF08000020FA
:100C6C0008B5FFF7F7FF044B5B68C3F30223034A95
:100C7C00D35CD84008BD00BF0010024058130008D8
:100C8C0008B5FFF7E7FF044B5B68C3F3C223034AC5
:100C9C00D35CD84008BD00BF0010024058130008B8
:100CAC0070B582B00024A446A6E0804DAA4210D0B4
:100CBC0007D97F4DAA420CD005F58035AA4208D041
:100CCC0013E0A5F58015AA4203D005F57025AA42BC
:100CDC0007D18A68002A58D0012A51D043610824D0
:100CEC0003E0A5F58015AA42F3D0BEF1FF0F4ED854
:100CFC000646BEF1FF0F4CD84FEA8C0233680F2525
:100D0C00954023EA050304FA02F2134333604B685F
:100D1C0013F0805F6ED0674B9A6942F001029A61C2
:100D2C009B6903F001030193019B4FEA9C02951C04
:100D3C00614B53F825600CF003039D000F23AB406F
:100D4C0026EA03065D4B984229D003F5806398424E
:100D5C0000F08E8003F58063984200F08B8003F5E1
:100D6C008063984219D004231AE0CC68BDE7CC68A4
:100D7C000434BAE7CC680834B7E7CC680C34B4E771
:100D8C0003610824B1E70024AFE70424ADE7061D96
:100D9C00AFE7ACF108029200B0E7032300E00023B8
:100DAC00AB4033430232444D45F822304B6813F4C8
:100DBC00801F61D0424A936843EA0E0393604B68EC
:100DCC0013F4001F5ED03E4AD36843EA0E03D3608F
:100DDC004B6813F4003F5BD0394A536843EA0E0367
:100DEC0053604B6813F4803F58D0354A136843EA7C
:100DFC000E0313600CF1010C0A6832FA0CF353D099
:100E0C00012303FA0CF302EA030E33EA0202F1D1D6
:100E1C004A68122A3FF649AF122A3FF666AF01A57F
:100E2C0055F822F0DF0C0008770D0008810D000842
:100E3C00930D0008F70C0008F70C0008F70C0008DD
:100E4C00F70C0008F70C0008F70C0008F70C00086A
:100E5C00F70C0008F70C0008F70C0008F70C00085A
:100E6C00F70C0008F70C00087B0D0008870D000834
:100E7C00012395E7022393E7114A936823EA0E03B3
:100E8C0093609CE70E4AD36823EA0E03D3609FE776
:100E9C000B4A536823EA0E035360A2E7084A13680F
:100EAC0023EA0E031360A5E702B070BD0000221008
:100EBC000000311000100240000001400008014009
:100ECC00000401400AB101617047090401617047D7
:100EDC00074AD36823F4E0631B041B0C000200F4E4
:100EEC00E060034343F0BF6343F40033D3607047C7
:100EFC0000ED00E000B5194BDB68C3F30223C3F12E
:100F0C00070CBCF1040F28BF4FF0040C03F1040EC6
:100F1C00BEF1060F18D9033B4FF0FF3E0EFA0CFC46
:100F2C0021EA0C0199400EFA03F322EA0303194358
:100F3C0000280BDB0901C9B200F1604000F56140EB
:100F4C0080F800135DF804FB0023E5E700F00F00C8
:100F5C000901C9B2024B1954F4E700BF00ED00E0DF
:100F6C0014ED00E00138B0F1807F0BD24FF0E0239C
:100F7C005861054AF02182F823100020986107225D
:100F8C001A6170470120704700ED00E0704702685D
:100F9C0002F10C0353E8003F23F490730C3242E847
:100FAC0000310029F3D1026802F1140353E8003F29
:100FBC0023F00103143242E800310029F3D1036B12
:100FCC00012B05D0202380F84230002303637047A7
:100FDC00026802F10C0353E8003F23F010030C32BB
:100FEC0042E800310029F3D1ECE7000010B50446CB
:100FFC000268136923F44053C1680B43136183687F
:10100C000269134342691A430168CB6823F4B05355
:10101C0023F00C031343CB600268536923F4407331
:10102C0081690B4353610268134B9A4220D0FFF73E
:10103C0017FE024602EB820202EB820263689B00FF
:10104C00B2FBF3F20D48A0FB02314909642303FB08
:10105C0011231B013233A0FB03235B0903F0F002C5
:10106C0002EB011203F00F03216813448B6010BDD7
:10107C00FFF706FE0246DDE7003801401F85EB5105
:10108C002DE9F04383B005460E4617469946DDF828
:10109C0028802C68246836EA04030CBF4FF0010C3E
:1010AC004FF0000CBC4528D1B8F1FF3FF1D0FFF751
:1010BC00B9FAA0EB0900404523D8B8F1000F22D0B3
:1010CC002B68DA6812F0040FE3D0802EE1D0402EAA
:1010DC00DFD01A6812F0080FDBD0002401941A68D4
:1010EC0001925B680193019B2846FFF750FF082390
:1010FC006B6485F84040012000E0002003B0BDE89F
:10110C00F0830320FAE70320F8E760B310B5044638
:10111C0090F8413013B3242384F841302268D3680B
:10112C0023F40053D3602046FFF760FF2268136955
:10113C0023F4904313612268536923F02A0353610B
:10114C002268D36843F40053D360002060642023EA
:10115C0084F8413084F84230606310BD80F8403030
:10116C00FFF7E0F9D7E7012070472DE9F04182B095
:10117C001E4690F84130DBB2202B56D104460D466A
:10118C009046002955D00AB901204FE00023436452
:10119C00212380F84130FFF745FA0746A4F8248054
:1011AC00A4F82680A368B3F5805F02D04FF0000846
:1011BC0014E023692BB34FF000080FE0202384F8D0
:1011CC004130032032E038F8023B2268C3F30803B5
:1011DC005360E28C92B2013A92B2E284E38C9BB2FD
:1011EC0093B100963B46002280212046FFF748FF32
:1011FC000028E3D1002DE6D015F8012B23685A60A6
:10120C00E7E7A8460025E9E700963B460022402187
:10121C002046FFF735FF18B9202384F8413005E04C
:10122C00202384F84130032000E0022002B0BDE806
:10123C00F0810120FAE70000FFF7A8FE0B480C49EB
:10124C000C4A002302E0D458C4500433C4188C4216
:10125C00F9D3094A094C002301E013600432A2427D
:10126C00FBD300F00FF8FEF7CBFF70470000002017
:10127C000C000020601300080C0000205800002017
:10128C00FEE7000070B500260C4D0D4C641BA4103D
:10129C00A64209D100F022F800260A4D0A4C641B24
:1012AC00A410A64205D170BD55F8043B98470136F1
:1012BC00EEE755F8043B98470136F2E700000000D2
:1012CC000000000000000000000000000346024483
:1012DC00934200D1704703F8011BF9E7F8B500BF42
:1012EC00F8BC08BC9E467047F8B500BFF8BC08BCFB
:0412FC009E46704753
:1013000048652074686F6E67205253343835204F1B
:101310004B00000048656C6C6F2066726F6D205347
:10132000544D3332206F7665722052533438352154
:101330000D0A000002030405060708090A0B0C0D3C
:101340000E0F10100102000000000000000000005D
:10135000010203040607080900000000010203045B
:0C136000010000001000000000127A00E4
:040000050800124598
:00000001FF
